{
  "contractName": "AnyGuardianSocket",
  "abi": [
    {
      "inputs": [
        {
          "internalType": "address",
          "name": "router",
          "type": "address"
        },
        {
          "internalType": "address",
          "name": "underlying",
          "type": "address"
        }
      ],
      "stateMutability": "nonpayable",
      "type": "constructor"
    },
    {
      "anonymous": false,
      "inputs": [
        {
          "indexed": false,
          "internalType": "uint256",
          "name": "tokenId",
          "type": "uint256"
        },
        {
          "indexed": false,
          "internalType": "uint256",
          "name": "aura",
          "type": "uint256"
        }
      ],
      "name": "LogSetGuardian",
      "type": "event"
    },
    {
      "inputs": [
        {
          "internalType": "address",
          "name": "_from",
          "type": "address"
        },
        {
          "internalType": "uint256",
          "name": "tokenId",
          "type": "uint256"
        }
      ],
      "name": "LockIn",
      "outputs": [
        {
          "internalType": "string",
          "name": "data",
          "type": "string"
        }
      ],
      "stateMutability": "nonpayable",
      "type": "function"
    },
    {
      "inputs": [
        {
          "internalType": "address",
          "name": "to",
          "type": "address"
        },
        {
          "internalType": "uint256",
          "name": "tokenId",
          "type": "uint256"
        },
        {
          "internalType": "string",
          "name": "data",
          "type": "string"
        }
      ],
      "name": "LockOut",
      "outputs": [],
      "stateMutability": "nonpayable",
      "type": "function"
    },
    {
      "inputs": [
        {
          "internalType": "address",
          "name": "",
          "type": "address"
        },
        {
          "internalType": "address",
          "name": "",
          "type": "address"
        },
        {
          "internalType": "uint256",
          "name": "",
          "type": "uint256"
        },
        {
          "internalType": "bytes",
          "name": "",
          "type": "bytes"
        }
      ],
      "name": "onERC721Received",
      "outputs": [
        {
          "internalType": "bytes4",
          "name": "",
          "type": "bytes4"
        }
      ],
      "stateMutability": "pure",
      "type": "function"
    },
    {
      "inputs": [],
      "name": "router",
      "outputs": [
        {
          "internalType": "address",
          "name": "",
          "type": "address"
        }
      ],
      "stateMutability": "view",
      "type": "function"
    },
    {
      "inputs": [],
      "name": "underlying",
      "outputs": [
        {
          "internalType": "address",
          "name": "",
          "type": "address"
        }
      ],
      "stateMutability": "view",
      "type": "function"
    },
    {
      "inputs": [
        {
          "internalType": "uint256",
          "name": "tokenId",
          "type": "uint256"
        }
      ],
      "name": "packAttributes",
      "outputs": [
        {
          "internalType": "string",
          "name": "data",
          "type": "string"
        }
      ],
      "stateMutability": "view",
      "type": "function"
    }
  ],
  "bytecode": "0x60c06040523480156200001157600080fd5b50604051620014a4380380620014a48339818101604052810190620000379190620000c8565b81818173ffffffffffffffffffffffffffffffffffffffff1660808173ffffffffffffffffffffffffffffffffffffffff1660601b815250508073ffffffffffffffffffffffffffffffffffffffff1660a08173ffffffffffffffffffffffffffffffffffffffff1660601b815250505050505062000162565b600081519050620000c28162000148565b92915050565b60008060408385031215620000e257620000e162000143565b5b6000620000f285828601620000b1565b92505060206200010585828601620000b1565b9150509250929050565b60006200011c8262000123565b9050919050565b600073ffffffffffffffffffffffffffffffffffffffff82169050919050565b600080fd5b62000153816200010f565b81146200015f57600080fd5b50565b60805160601c60a05160601c6112e5620001bf600039600081816101e30152818161028d015281816102b50152818161043e015281816104f9015281816105b3015261069501526000818161038a01526104d301526112e56000f3fe608060405234801561001057600080fd5b50600436106100625760003560e01c806312caebce14610067578063150b7a02146100975780636f307dc3146100c7578063aeb87c71146100e5578063d5f3fead14610115578063f887ea4014610131575b600080fd5b610081600480360381019061007c9190610ab7565b61014f565b60405161008e9190610d7a565b60405180910390f35b6100b160048036038101906100ac9190610a2f565b610276565b6040516100be9190610d5f565b60405180910390f35b6100cf61028b565b6040516100dc9190610ce4565b60405180910390f35b6100ff60048036038101906100fa9190610bb4565b6102af565b60405161010c9190610d7a565b60405180910390f35b61012f600480360381019061012a9190610af7565b610388565b005b6101396104d1565b6040516101469190610ce4565b60405180910390f35b60603073ffffffffffffffffffffffffffffffffffffffff1663aeb87c71836040518263ffffffff1660e01b815260040161018a9190610d9c565b60006040518083038186803b1580156101a257600080fd5b505afa1580156101b6573d6000803e3d6000fd5b505050506040513d6000823e3d601f19601f820116820180604052508101906101df9190610b6b565b90507f000000000000000000000000000000000000000000000000000000000000000073ffffffffffffffffffffffffffffffffffffffff166342842e0e8430856040518463ffffffff1660e01b815260040161023e93929190610cff565b600060405180830381600087803b15801561025857600080fd5b505af115801561026c573d6000803e3d6000fd5b5050505092915050565b600063150b7a0260e01b905095945050505050565b7f000000000000000000000000000000000000000000000000000000000000000081565b606060007f000000000000000000000000000000000000000000000000000000000000000073ffffffffffffffffffffffffffffffffffffffff1663659742d2846040518263ffffffff1660e01b815260040161030c9190610d9c565b60206040518083038186803b15801561032457600080fd5b505afa158015610338573d6000803e3d6000fd5b505050506040513d601f19601f8201168201806040525081019061035c9190610be1565b90508181604051602001610371929190610cbc565b604051602081830303815290604052915050919050565b7f000000000000000000000000000000000000000000000000000000000000000073ffffffffffffffffffffffffffffffffffffffff168473ffffffffffffffffffffffffffffffffffffffff161415801561041057503073ffffffffffffffffffffffffffffffffffffffff168473ffffffffffffffffffffffffffffffffffffffff1614155b61041957600080fd5b610422836104f5565b6104315761043030846105b1565b5b61043c838383610642565b7f000000000000000000000000000000000000000000000000000000000000000073ffffffffffffffffffffffffffffffffffffffff166342842e0e3086866040518463ffffffff1660e01b815260040161049993929190610cff565b600060405180830381600087803b1580156104b357600080fd5b505af11580156104c7573d6000803e3d6000fd5b5050505050505050565b7f000000000000000000000000000000000000000000000000000000000000000081565b60007f000000000000000000000000000000000000000000000000000000000000000073ffffffffffffffffffffffffffffffffffffffff16636352211e836040518263ffffffff1660e01b81526004016105509190610d9c565b60206040518083038186803b15801561056857600080fd5b505afa92505050801561059957506040513d601f19601f820116820180604052508101906105969190610a02565b60015b6105a657600090506105ac565b60019150505b919050565b7f000000000000000000000000000000000000000000000000000000000000000073ffffffffffffffffffffffffffffffffffffffff1663a144819483836040518363ffffffff1660e01b815260040161060c929190610d36565b600060405180830381600087803b15801561062657600080fd5b505af115801561063a573d6000803e3d6000fd5b505050505050565b600061069183838080601f016020809104026020016040519081016040528093929190818152602001838380828437600081840152601f19601f8201169050808301925050505050505061075f565b90507f000000000000000000000000000000000000000000000000000000000000000073ffffffffffffffffffffffffffffffffffffffff16630e7cb27585836040518363ffffffff1660e01b81526004016106ee929190610db7565b600060405180830381600087803b15801561070857600080fd5b505af115801561071c573d6000803e3d6000fd5b505050507f1265e7f4c3721f551e66f23dde3a4107224d5d6bfa67a3756dedeeb8508374a18482604051610751929190610db7565b60405180910390a150505050565b60008082905060008060005b8351811015610851576000811480156107e257507f2d000000000000000000000000000000000000000000000000000000000000008482815181106107b3576107b26111f4565b5b602001015160f81c60f81b7effffffffffffffffffffffffffffffffffffffffffffffffffffffffffffff1916145b156107ec57600191505b600a836107f99190610ef1565b925060008482815181106108105761080f6111f4565b5b602001015160f81c60f81b60f81c60ff1690506030816108309190611008565b8461083b9190610e5d565b935050808061084990611172565b91505061076b565b508015610887577fffffffffffffffffffffffffffffffffffffffffffffffffffffffffffffffff826108849190610ef1565b91505b819350505050919050565b60006108a56108a084610e05565b610de0565b9050828152602081018484840111156108c1576108c0611261565b5b6108cc84828561110e565b509392505050565b6000813590506108e381611281565b92915050565b6000815190506108f881611281565b92915050565b60008083601f84011261091457610913611257565b5b8235905067ffffffffffffffff81111561093157610930611252565b5b60208301915083600182028301111561094d5761094c61125c565b5b9250929050565b60008083601f84011261096a57610969611257565b5b8235905067ffffffffffffffff81111561098757610986611252565b5b6020830191508360018202830111156109a3576109a261125c565b5b9250929050565b600082601f8301126109bf576109be611257565b5b81516109cf848260208601610892565b91505092915050565b6000813590506109e781611298565b92915050565b6000815190506109fc81611298565b92915050565b600060208284031215610a1857610a1761126b565b5b6000610a26848285016108e9565b91505092915050565b600080600080600060808688031215610a4b57610a4a61126b565b5b6000610a59888289016108d4565b9550506020610a6a888289016108d4565b9450506040610a7b888289016109d8565b935050606086013567ffffffffffffffff811115610a9c57610a9b611266565b5b610aa8888289016108fe565b92509250509295509295909350565b60008060408385031215610ace57610acd61126b565b5b6000610adc858286016108d4565b9250506020610aed858286016109d8565b9150509250929050565b60008060008060608587031215610b1157610b1061126b565b5b6000610b1f878288016108d4565b9450506020610b30878288016109d8565b935050604085013567ffffffffffffffff811115610b5157610b50611266565b5b610b5d87828801610954565b925092505092959194509250565b600060208284031215610b8157610b8061126b565b5b600082015167ffffffffffffffff811115610b9f57610b9e611266565b5b610bab848285016109aa565b91505092915050565b600060208284031215610bca57610bc961126b565b5b6000610bd8848285016109d8565b91505092915050565b600060208284031215610bf757610bf661126b565b5b6000610c05848285016109ed565b91505092915050565b610c178161109c565b82525050565b610c26816110ae565b82525050565b6000610c3782610e36565b610c418185610e41565b9350610c5181856020860161110e565b610c5a81611270565b840191505092915050565b6000610c7082610e36565b610c7a8185610e52565b9350610c8a81856020860161110e565b80840191505092915050565b610c9f81611104565b82525050565b610cb6610cb182611104565b6111bb565b82525050565b6000610cc88285610c65565b9150610cd48284610ca5565b6020820191508190509392505050565b6000602082019050610cf96000830184610c0e565b92915050565b6000606082019050610d146000830186610c0e565b610d216020830185610c0e565b610d2e6040830184610c96565b949350505050565b6000604082019050610d4b6000830185610c0e565b610d586020830184610c96565b9392505050565b6000602082019050610d746000830184610c1d565b92915050565b60006020820190508181036000830152610d948184610c2c565b905092915050565b6000602082019050610db16000830184610c96565b92915050565b6000604082019050610dcc6000830185610c96565b610dd96020830184610c96565b9392505050565b6000610dea610dfb565b9050610df68282611141565b919050565b6000604051905090565b600067ffffffffffffffff821115610e2057610e1f611223565b5b610e2982611270565b9050602081019050919050565b600081519050919050565b600082825260208201905092915050565b600081905092915050565b6000610e68826110da565b9150610e73836110da565b9250817f7fffffffffffffffffffffffffffffffffffffffffffffffffffffffffffffff03831360008312151615610eae57610ead6111c5565b5b817f8000000000000000000000000000000000000000000000000000000000000000038312600083121615610ee657610ee56111c5565b5b828201905092915050565b6000610efc826110da565b9150610f07836110da565b9250827f7fffffffffffffffffffffffffffffffffffffffffffffffffffffffffffffff0482116000841360008413161615610f4657610f456111c5565b5b817f80000000000000000000000000000000000000000000000000000000000000000583126000841260008413161615610f8357610f826111c5565b5b827f80000000000000000000000000000000000000000000000000000000000000000582126000841360008412161615610fc057610fbf6111c5565b5b827f7fffffffffffffffffffffffffffffffffffffffffffffffffffffffffffffff0582126000841260008412161615610ffd57610ffc6111c5565b5b828202905092915050565b6000611013826110da565b915061101e836110da565b9250827f800000000000000000000000000000000000000000000000000000000000000001821260008412151615611059576110586111c5565b5b827f7fffffffffffffffffffffffffffffffffffffffffffffffffffffffffffffff018213600084121615611091576110906111c5565b5b828203905092915050565b60006110a7826110e4565b9050919050565b60007fffffffff0000000000000000000000000000000000000000000000000000000082169050919050565b6000819050919050565b600073ffffffffffffffffffffffffffffffffffffffff82169050919050565b6000819050919050565b60005b8381101561112c578082015181840152602081019050611111565b8381111561113b576000848401525b50505050565b61114a82611270565b810181811067ffffffffffffffff8211171561116957611168611223565b5b80604052505050565b600061117d82611104565b91507fffffffffffffffffffffffffffffffffffffffffffffffffffffffffffffffff8214156111b0576111af6111c5565b5b600182019050919050565b6000819050919050565b7f4e487b7100000000000000000000000000000000000000000000000000000000600052601160045260246000fd5b7f4e487b7100000000000000000000000000000000000000000000000000000000600052603260045260246000fd5b7f4e487b7100000000000000000000000000000000000000000000000000000000600052604160045260246000fd5b600080fd5b600080fd5b600080fd5b600080fd5b600080fd5b600080fd5b6000601f19601f8301169050919050565b61128a8161109c565b811461129557600080fd5b50565b6112a181611104565b81146112ac57600080fd5b5056fea2646970667358221220f6141d7a9ab10b836396f65065e20909296c16e831b55f28aad16b5fec4e250264736f6c63430008060033",
  "immutableReferences": {
    "18": [
      {
        "length": 32,
        "start": 906
      },
      {
        "length": 32,
        "start": 1235
      }
    ],
    "20": [
      {
        "length": 32,
        "start": 483
      },
      {
        "length": 32,
        "start": 653
      },
      {
        "length": 32,
        "start": 693
      },
      {
        "length": 32,
        "start": 1086
      },
      {
        "length": 32,
        "start": 1273
      },
      {
        "length": 32,
        "start": 1459
      },
      {
        "length": 32,
        "start": 1685
      }
    ]
  },
  "source": "// SPDX-License-Identifier: MIT\r\n\r\npragma solidity ^0.8.0;\r\n\r\nimport {ERC721} from \"./ERC721.sol\";\r\nimport {Any721Socket} from \"./Any721Socket.sol\";\r\n\r\ncontract Guardian is ERC721 {\r\n    constructor() ERC721(\"Guardian\", \"Guardian\") {}\r\n\r\n    function setSocket(address socket) public {\r\n        require(minter == address(0) && superowner == address(0));\r\n        minter = socket;\r\n        superowner = socket;\r\n    }\r\n\r\n    address public minter;\r\n\r\n    modifier onlyMinter() {\r\n        require(_msgSender() == minter, \"\");\r\n        _;\r\n    }\r\n\r\n    function safeMint(address to, uint256 tokenId) external onlyMinter {\r\n        _safeMint(to, tokenId);\r\n    }\r\n\r\n    // superowner can edit attributes of his tokens\r\n    address public superowner;\r\n\r\n    modifier onlySuperowner(uint256 tokenId) {\r\n        require(_msgSender() == superowner, \"Must be called by superowner\");\r\n        require(ownerOf(tokenId) == superowner, \"Must own this token\");\r\n        _;\r\n    }\r\n\r\n    function claim(uint256 tokenId) public {\r\n        _safeMint(msg.sender, tokenId);\r\n    }\r\n\r\n    mapping(uint256 => uint) private aura;\r\n\r\n    function Aura(uint256 tokenId) public view returns (uint) {\r\n        return aura[tokenId];\r\n    }\r\n\r\n    function SetAura(uint256 tokenId, uint _aura) public onlySuperowner(tokenId) {\r\n        aura[tokenId] = _aura;\r\n    }\r\n}\r\n\r\ncontract AnyGuardianSocket is Any721Socket {\r\n    constructor (address router, address underlying) Any721Socket(router, underlying) {}\r\n\r\n    function packAttributes(uint256 tokenId) override public view returns (string memory data) {\r\n        uint aura = Guardian(underlying).Aura(tokenId);\r\n        data = string(abi.encodePacked(data, aura));\r\n        return data;\r\n    }\r\n\r\n    /*\r\n    [0,1000]\r\n    // ordered list, [element,aura]\r\n    */\r\n    function recoverAttributes(uint256 tokenId, string calldata data) override internal {    \r\n        uint aura = uint(parseInt(data));\r\n\r\n        Guardian(underlying).SetAura(tokenId, aura);\r\n        emit LogSetGuardian(tokenId, aura);\r\n        return;\r\n    }\r\n\r\n    event LogSetGuardian(uint256 tokenId, uint aura);\r\n\r\n    function parseInt(string memory _a) internal pure returns (int) {\r\n        bytes memory bresult = bytes(_a);\r\n        int mint = 0;\r\n        bool negative = false;\r\n        for (uint i=0; i<bresult.length; i++){\r\n            if ((i == 0) && (bresult[i] == '-')) {\r\n                negative = true;\r\n            }\r\n            mint *= 10;\r\n            uint x = uint8(bresult[i]);\r\n            mint += int256(x) - 48;\r\n        }\r\n        if (negative) mint *= -1;\r\n        return mint;\r\n    }\r\n}",
  "sourcePath": "D:\\NFT-bridge\\contracts\\Any721SocketExample.sol",
  "compiler": {
    "name": "solc",
    "version": "0.8.6+commit.11564f7e.Emscripten.clang"
  },
  "schemaVersion": "3.4.3",
  "updatedAt": "2021-10-22T13:46:53.132Z",
  "devdoc": {
    "kind": "dev",
    "methods": {},
    "version": 1
  },
  "userdoc": {
    "kind": "user",
    "methods": {},
    "version": 1
  }
}