{
  "contractName": "Guardian",
  "abi": [
    {
      "inputs": [],
      "stateMutability": "nonpayable",
      "type": "constructor"
    },
    {
      "anonymous": false,
      "inputs": [
        {
          "indexed": true,
          "internalType": "address",
          "name": "owner",
          "type": "address"
        },
        {
          "indexed": true,
          "internalType": "address",
          "name": "approved",
          "type": "address"
        },
        {
          "indexed": true,
          "internalType": "uint256",
          "name": "tokenId",
          "type": "uint256"
        }
      ],
      "name": "Approval",
      "type": "event"
    },
    {
      "anonymous": false,
      "inputs": [
        {
          "indexed": true,
          "internalType": "address",
          "name": "owner",
          "type": "address"
        },
        {
          "indexed": true,
          "internalType": "address",
          "name": "operator",
          "type": "address"
        },
        {
          "indexed": false,
          "internalType": "bool",
          "name": "approved",
          "type": "bool"
        }
      ],
      "name": "ApprovalForAll",
      "type": "event"
    },
    {
      "anonymous": false,
      "inputs": [
        {
          "indexed": true,
          "internalType": "address",
          "name": "from",
          "type": "address"
        },
        {
          "indexed": true,
          "internalType": "address",
          "name": "to",
          "type": "address"
        },
        {
          "indexed": true,
          "internalType": "uint256",
          "name": "tokenId",
          "type": "uint256"
        }
      ],
      "name": "Transfer",
      "type": "event"
    },
    {
      "inputs": [
        {
          "internalType": "address",
          "name": "to",
          "type": "address"
        },
        {
          "internalType": "uint256",
          "name": "tokenId",
          "type": "uint256"
        }
      ],
      "name": "approve",
      "outputs": [],
      "stateMutability": "nonpayable",
      "type": "function"
    },
    {
      "inputs": [
        {
          "internalType": "address",
          "name": "owner",
          "type": "address"
        }
      ],
      "name": "balanceOf",
      "outputs": [
        {
          "internalType": "uint256",
          "name": "",
          "type": "uint256"
        }
      ],
      "stateMutability": "view",
      "type": "function"
    },
    {
      "inputs": [
        {
          "internalType": "uint256",
          "name": "tokenId",
          "type": "uint256"
        }
      ],
      "name": "getApproved",
      "outputs": [
        {
          "internalType": "address",
          "name": "",
          "type": "address"
        }
      ],
      "stateMutability": "view",
      "type": "function"
    },
    {
      "inputs": [
        {
          "internalType": "address",
          "name": "owner",
          "type": "address"
        },
        {
          "internalType": "address",
          "name": "operator",
          "type": "address"
        }
      ],
      "name": "isApprovedForAll",
      "outputs": [
        {
          "internalType": "bool",
          "name": "",
          "type": "bool"
        }
      ],
      "stateMutability": "view",
      "type": "function"
    },
    {
      "inputs": [],
      "name": "minter",
      "outputs": [
        {
          "internalType": "address",
          "name": "",
          "type": "address"
        }
      ],
      "stateMutability": "view",
      "type": "function"
    },
    {
      "inputs": [],
      "name": "name",
      "outputs": [
        {
          "internalType": "string",
          "name": "",
          "type": "string"
        }
      ],
      "stateMutability": "view",
      "type": "function"
    },
    {
      "inputs": [
        {
          "internalType": "uint256",
          "name": "tokenId",
          "type": "uint256"
        }
      ],
      "name": "ownerOf",
      "outputs": [
        {
          "internalType": "address",
          "name": "",
          "type": "address"
        }
      ],
      "stateMutability": "view",
      "type": "function"
    },
    {
      "inputs": [
        {
          "internalType": "address",
          "name": "from",
          "type": "address"
        },
        {
          "internalType": "address",
          "name": "to",
          "type": "address"
        },
        {
          "internalType": "uint256",
          "name": "tokenId",
          "type": "uint256"
        }
      ],
      "name": "safeTransferFrom",
      "outputs": [],
      "stateMutability": "nonpayable",
      "type": "function"
    },
    {
      "inputs": [
        {
          "internalType": "address",
          "name": "from",
          "type": "address"
        },
        {
          "internalType": "address",
          "name": "to",
          "type": "address"
        },
        {
          "internalType": "uint256",
          "name": "tokenId",
          "type": "uint256"
        },
        {
          "internalType": "bytes",
          "name": "_data",
          "type": "bytes"
        }
      ],
      "name": "safeTransferFrom",
      "outputs": [],
      "stateMutability": "nonpayable",
      "type": "function"
    },
    {
      "inputs": [
        {
          "internalType": "address",
          "name": "operator",
          "type": "address"
        },
        {
          "internalType": "bool",
          "name": "approved",
          "type": "bool"
        }
      ],
      "name": "setApprovalForAll",
      "outputs": [],
      "stateMutability": "nonpayable",
      "type": "function"
    },
    {
      "inputs": [],
      "name": "superowner",
      "outputs": [
        {
          "internalType": "address",
          "name": "",
          "type": "address"
        }
      ],
      "stateMutability": "view",
      "type": "function"
    },
    {
      "inputs": [
        {
          "internalType": "bytes4",
          "name": "interfaceId",
          "type": "bytes4"
        }
      ],
      "name": "supportsInterface",
      "outputs": [
        {
          "internalType": "bool",
          "name": "",
          "type": "bool"
        }
      ],
      "stateMutability": "view",
      "type": "function"
    },
    {
      "inputs": [],
      "name": "symbol",
      "outputs": [
        {
          "internalType": "string",
          "name": "",
          "type": "string"
        }
      ],
      "stateMutability": "view",
      "type": "function"
    },
    {
      "inputs": [
        {
          "internalType": "uint256",
          "name": "tokenId",
          "type": "uint256"
        }
      ],
      "name": "tokenURI",
      "outputs": [
        {
          "internalType": "string",
          "name": "",
          "type": "string"
        }
      ],
      "stateMutability": "view",
      "type": "function"
    },
    {
      "inputs": [
        {
          "internalType": "address",
          "name": "from",
          "type": "address"
        },
        {
          "internalType": "address",
          "name": "to",
          "type": "address"
        },
        {
          "internalType": "uint256",
          "name": "tokenId",
          "type": "uint256"
        }
      ],
      "name": "transferFrom",
      "outputs": [],
      "stateMutability": "nonpayable",
      "type": "function"
    },
    {
      "inputs": [
        {
          "internalType": "address",
          "name": "socket",
          "type": "address"
        }
      ],
      "name": "setSocket",
      "outputs": [],
      "stateMutability": "nonpayable",
      "type": "function"
    },
    {
      "inputs": [
        {
          "internalType": "address",
          "name": "to",
          "type": "address"
        },
        {
          "internalType": "uint256",
          "name": "tokenId",
          "type": "uint256"
        }
      ],
      "name": "safeMint",
      "outputs": [],
      "stateMutability": "nonpayable",
      "type": "function"
    },
    {
      "inputs": [
        {
          "internalType": "uint256",
          "name": "tokenId",
          "type": "uint256"
        }
      ],
      "name": "claim",
      "outputs": [],
      "stateMutability": "nonpayable",
      "type": "function"
    },
    {
      "inputs": [
        {
          "internalType": "uint256",
          "name": "tokenId",
          "type": "uint256"
        }
      ],
      "name": "Aura",
      "outputs": [
        {
          "internalType": "uint256",
          "name": "",
          "type": "uint256"
        }
      ],
      "stateMutability": "view",
      "type": "function"
    },
    {
      "inputs": [
        {
          "internalType": "uint256",
          "name": "tokenId",
          "type": "uint256"
        },
        {
          "internalType": "uint256",
          "name": "_aura",
          "type": "uint256"
        }
      ],
      "name": "SetAura",
      "outputs": [],
      "stateMutability": "nonpayable",
      "type": "function"
    }
  ],
  "bytecode": "0x60806040523480156200001157600080fd5b506040518060400160405280600881526020017f477561726469616e0000000000000000000000000000000000000000000000008152506040518060400160405280600881526020017f477561726469616e000000000000000000000000000000000000000000000000815250816000908051906020019062000096929190620000b8565b508060019080519060200190620000af929190620000b8565b505050620001cd565b828054620000c69062000168565b90600052602060002090601f016020900481019282620000ea576000855562000136565b82601f106200010557805160ff191683800117855562000136565b8280016001018555821562000136579182015b828111156200013557825182559160200191906001019062000118565b5b50905062000145919062000149565b5090565b5b80821115620001645760008160009055506001016200014a565b5090565b600060028204905060018216806200018157607f821691505b602082108114156200019857620001976200019e565b5b50919050565b7f4e487b7100000000000000000000000000000000000000000000000000000000600052602260045260246000fd5b612d2480620001dd6000396000f3fe608060405234801561001057600080fd5b506004361061012c5760003560e01c80636352211e116100ad578063a144819411610071578063a144819414610341578063a22cb4651461035d578063b88d4fde14610379578063c87b56dd14610395578063e985e9c5146103c55761012c565b80636352211e14610277578063659742d2146102a757806370a08231146102d75780637f3c64361461030757806395d89b41146103235761012c565b8063095ea7b3116100f4578063095ea7b3146101eb5780630e7cb2751461020757806323b872dd14610223578063379607f51461023f57806342842e0e1461025b5761012c565b806301ffc9a7146101315780630666b66b1461016157806306fdde031461017f578063075461721461019d578063081812fc146101bb575b600080fd5b61014b60048036038101906101469190611d79565b6103f5565b60405161015891906121ee565b60405180910390f35b6101696104d7565b6040516101769190612187565b60405180910390f35b6101876104fd565b6040516101949190612209565b60405180910390f35b6101a561058f565b6040516101b29190612187565b60405180910390f35b6101d560048036038101906101d09190611dd3565b6105b5565b6040516101e29190612187565b60405180910390f35b61020560048036038101906102009190611d39565b61063a565b005b610221600480360381019061021c9190611e00565b610752565b005b61023d60048036038101906102389190611c23565b61089f565b005b61025960048036038101906102549190611dd3565b6108ff565b005b61027560048036038101906102709190611c23565b61090c565b005b610291600480360381019061028c9190611dd3565b61092c565b60405161029e9190612187565b60405180910390f35b6102c160048036038101906102bc9190611dd3565b6109de565b6040516102ce919061244b565b60405180910390f35b6102f160048036038101906102ec9190611bb6565b6109fb565b6040516102fe919061244b565b60405180910390f35b610321600480360381019061031c9190611bb6565b610ab3565b005b61032b610bed565b6040516103389190612209565b60405180910390f35b61035b60048036038101906103569190611d39565b610c7f565b005b61037760048036038101906103729190611cf9565b610d24565b005b610393600480360381019061038e9190611c76565b610ea5565b005b6103af60048036038101906103aa9190611dd3565b610f07565b6040516103bc9190612209565b60405180910390f35b6103df60048036038101906103da9190611be3565b610fae565b6040516103ec91906121ee565b60405180910390f35b60007f80ac58cd000000000000000000000000000000000000000000000000000000007bffffffffffffffffffffffffffffffffffffffffffffffffffffffff1916827bffffffffffffffffffffffffffffffffffffffffffffffffffffffff191614806104c057507f5b5e139f000000000000000000000000000000000000000000000000000000007bffffffffffffffffffffffffffffffffffffffffffffffffffffffff1916827bffffffffffffffffffffffffffffffffffffffffffffffffffffffff1916145b806104d057506104cf82611042565b5b9050919050565b600760009054906101000a900473ffffffffffffffffffffffffffffffffffffffff1681565b60606000805461050c90612670565b80601f016020809104026020016040519081016040528092919081815260200182805461053890612670565b80156105855780601f1061055a57610100808354040283529160200191610585565b820191906000526020600020905b81548152906001019060200180831161056857829003601f168201915b5050505050905090565b600660009054906101000a900473ffffffffffffffffffffffffffffffffffffffff1681565b60006105c0826110ac565b6105ff576040517f08c379a00000000000000000000000000000000000000000000000000000000081526004016105f69061238b565b60405180910390fd5b6004600083815260200190815260200160002060009054906101000a900473ffffffffffffffffffffffffffffffffffffffff169050919050565b60006106458261092c565b90508073ffffffffffffffffffffffffffffffffffffffff168373ffffffffffffffffffffffffffffffffffffffff1614156106b6576040517f08c379a00000000000000000000000000000000000000000000000000000000081526004016106ad906123eb565b60405180910390fd5b8073ffffffffffffffffffffffffffffffffffffffff166106d5611118565b73ffffffffffffffffffffffffffffffffffffffff1614806107045750610703816106fe611118565b610fae565b5b610743576040517f08c379a000000000000000000000000000000000000000000000000000000000815260040161073a9061230b565b60405180910390fd5b61074d8383611120565b505050565b81600760009054906101000a900473ffffffffffffffffffffffffffffffffffffffff1673ffffffffffffffffffffffffffffffffffffffff16610794611118565b73ffffffffffffffffffffffffffffffffffffffff16146107ea576040517f08c379a00000000000000000000000000000000000000000000000000000000081526004016107e1906122eb565b60405180910390fd5b600760009054906101000a900473ffffffffffffffffffffffffffffffffffffffff1673ffffffffffffffffffffffffffffffffffffffff1661082c8261092c565b73ffffffffffffffffffffffffffffffffffffffff1614610882576040517f08c379a00000000000000000000000000000000000000000000000000000000081526004016108799061222b565b60405180910390fd5b816008600085815260200190815260200160002081905550505050565b6108b06108aa611118565b826111d9565b6108ef576040517f08c379a00000000000000000000000000000000000000000000000000000000081526004016108e69061242b565b60405180910390fd5b6108fa8383836112b7565b505050565b6109093382611513565b50565b61092783838360405180602001604052806000815250610ea5565b505050565b6000806002600084815260200190815260200160002060009054906101000a900473ffffffffffffffffffffffffffffffffffffffff169050600073ffffffffffffffffffffffffffffffffffffffff168173ffffffffffffffffffffffffffffffffffffffff1614156109d5576040517f08c379a00000000000000000000000000000000000000000000000000000000081526004016109cc9061234b565b60405180910390fd5b80915050919050565b600060086000838152602001908152602001600020549050919050565b60008073ffffffffffffffffffffffffffffffffffffffff168273ffffffffffffffffffffffffffffffffffffffff161415610a6c576040517f08c379a0000000000000000000000000000000000000000000000000000000008152600401610a639061232b565b60405180910390fd5b600360008373ffffffffffffffffffffffffffffffffffffffff1673ffffffffffffffffffffffffffffffffffffffff168152602001908152602001600020549050919050565b600073ffffffffffffffffffffffffffffffffffffffff16600660009054906101000a900473ffffffffffffffffffffffffffffffffffffffff1673ffffffffffffffffffffffffffffffffffffffff16148015610b5f5750600073ffffffffffffffffffffffffffffffffffffffff16600760009054906101000a900473ffffffffffffffffffffffffffffffffffffffff1673ffffffffffffffffffffffffffffffffffffffff16145b610b6857600080fd5b80600660006101000a81548173ffffffffffffffffffffffffffffffffffffffff021916908373ffffffffffffffffffffffffffffffffffffffff16021790555080600760006101000a81548173ffffffffffffffffffffffffffffffffffffffff021916908373ffffffffffffffffffffffffffffffffffffffff16021790555050565b606060018054610bfc90612670565b80601f0160208091040260200160405190810160405280929190818152602001828054610c2890612670565b8015610c755780601f10610c4a57610100808354040283529160200191610c75565b820191906000526020600020905b815481529060010190602001808311610c5857829003601f168201915b5050505050905090565b600660009054906101000a900473ffffffffffffffffffffffffffffffffffffffff1673ffffffffffffffffffffffffffffffffffffffff16610cc0611118565b73ffffffffffffffffffffffffffffffffffffffff1614610d16576040517f08c379a0000000000000000000000000000000000000000000000000000000008152600401610d0d9061240b565b60405180910390fd5b610d208282611513565b5050565b610d2c611118565b73ffffffffffffffffffffffffffffffffffffffff168273ffffffffffffffffffffffffffffffffffffffff161415610d9a576040517f08c379a0000000000000000000000000000000000000000000000000000000008152600401610d91906122ab565b60405180910390fd5b8060056000610da7611118565b73ffffffffffffffffffffffffffffffffffffffff1673ffffffffffffffffffffffffffffffffffffffff16815260200190815260200160002060008473ffffffffffffffffffffffffffffffffffffffff1673ffffffffffffffffffffffffffffffffffffffff16815260200190815260200160002060006101000a81548160ff0219169083151502179055508173ffffffffffffffffffffffffffffffffffffffff16610e54611118565b73ffffffffffffffffffffffffffffffffffffffff167f17307eab39ab6107e8899845ad3d59bd9653f200f220920489ca2b5937696c3183604051610e9991906121ee565b60405180910390a35050565b610eb6610eb0611118565b836111d9565b610ef5576040517f08c379a0000000000000000000000000000000000000000000000000000000008152600401610eec9061242b565b60405180910390fd5b610f0184848484611531565b50505050565b6060610f12826110ac565b610f51576040517f08c379a0000000000000000000000000000000000000000000000000000000008152600401610f48906123cb565b60405180910390fd5b6000610f5b61158d565b90506000815111610f7b5760405180602001604052806000815250610fa6565b80610f85846115a4565b604051602001610f96929190612163565b6040516020818303038152906040525b915050919050565b6000600560008473ffffffffffffffffffffffffffffffffffffffff1673ffffffffffffffffffffffffffffffffffffffff16815260200190815260200160002060008373ffffffffffffffffffffffffffffffffffffffff1673ffffffffffffffffffffffffffffffffffffffff16815260200190815260200160002060009054906101000a900460ff16905092915050565b60007f01ffc9a7000000000000000000000000000000000000000000000000000000007bffffffffffffffffffffffffffffffffffffffffffffffffffffffff1916827bffffffffffffffffffffffffffffffffffffffffffffffffffffffff1916149050919050565b60008073ffffffffffffffffffffffffffffffffffffffff166002600084815260200190815260200160002060009054906101000a900473ffffffffffffffffffffffffffffffffffffffff1673ffffffffffffffffffffffffffffffffffffffff1614159050919050565b600033905090565b816004600083815260200190815260200160002060006101000a81548173ffffffffffffffffffffffffffffffffffffffff021916908373ffffffffffffffffffffffffffffffffffffffff160217905550808273ffffffffffffffffffffffffffffffffffffffff166111938361092c565b73ffffffffffffffffffffffffffffffffffffffff167f8c5be1e5ebec7d5bd14f71427d1e84f3dd0314c0f7b2291e5b200ac8c7c3b92560405160405180910390a45050565b60006111e4826110ac565b611223576040517f08c379a000000000000000000000000000000000000000000000000000000000815260040161121a906122cb565b60405180910390fd5b600061122e8361092c565b90508073ffffffffffffffffffffffffffffffffffffffff168473ffffffffffffffffffffffffffffffffffffffff16148061129d57508373ffffffffffffffffffffffffffffffffffffffff16611285846105b5565b73ffffffffffffffffffffffffffffffffffffffff16145b806112ae57506112ad8185610fae565b5b91505092915050565b8273ffffffffffffffffffffffffffffffffffffffff166112d78261092c565b73ffffffffffffffffffffffffffffffffffffffff161461132d576040517f08c379a0000000000000000000000000000000000000000000000000000000008152600401611324906123ab565b60405180910390fd5b600073ffffffffffffffffffffffffffffffffffffffff168273ffffffffffffffffffffffffffffffffffffffff16141561139d576040517f08c379a00000000000000000000000000000000000000000000000000000000081526004016113949061228b565b60405180910390fd5b6113a8838383611705565b6113b3600082611120565b6001600360008573ffffffffffffffffffffffffffffffffffffffff1673ffffffffffffffffffffffffffffffffffffffff16815260200190815260200160002060008282546114039190612586565b925050819055506001600360008473ffffffffffffffffffffffffffffffffffffffff1673ffffffffffffffffffffffffffffffffffffffff168152602001908152602001600020600082825461145a91906124ff565b92505081905550816002600083815260200190815260200160002060006101000a81548173ffffffffffffffffffffffffffffffffffffffff021916908373ffffffffffffffffffffffffffffffffffffffff160217905550808273ffffffffffffffffffffffffffffffffffffffff168473ffffffffffffffffffffffffffffffffffffffff167fddf252ad1be2c89b69c2b068fc378daa952ba7f163c4a11628f55a4df523b3ef60405160405180910390a4505050565b61152d82826040518060200160405280600081525061170a565b5050565b61153c8484846112b7565b61154884848484611765565b611587576040517f08c379a000000000000000000000000000000000000000000000000000000000815260040161157e9061224b565b60405180910390fd5b50505050565b606060405180602001604052806000815250905090565b606060008214156115ec576040518060400160405280600181526020017f30000000000000000000000000000000000000000000000000000000000000008152509050611700565b600082905060005b6000821461161e578080611607906126d3565b915050600a826116179190612555565b91506115f4565b60008167ffffffffffffffff81111561163a57611639612809565b5b6040519080825280601f01601f19166020018201604052801561166c5781602001600182028036833780820191505090505b5090505b600085146116f9576001826116859190612586565b9150600a85611694919061271c565b60306116a091906124ff565b60f81b8183815181106116b6576116b56127da565b5b60200101907effffffffffffffffffffffffffffffffffffffffffffffffffffffffffffff1916908160001a905350600a856116f29190612555565b9450611670565b8093505050505b919050565b505050565b61171483836118fc565b6117216000848484611765565b611760576040517f08c379a00000000000000000000000000000000000000000000000000000000081526004016117579061224b565b60405180910390fd5b505050565b60006117868473ffffffffffffffffffffffffffffffffffffffff16611aca565b156118ef578373ffffffffffffffffffffffffffffffffffffffff1663150b7a026117af611118565b8786866040518563ffffffff1660e01b81526004016117d194939291906121a2565b602060405180830381600087803b1580156117eb57600080fd5b505af192505050801561181c57506040513d601f19601f820116820180604052508101906118199190611da6565b60015b61189f573d806000811461184c576040519150601f19603f3d011682016040523d82523d6000602084013e611851565b606091505b50600081511415611897576040517f08c379a000000000000000000000000000000000000000000000000000000000815260040161188e9061224b565b60405180910390fd5b805181602001fd5b63150b7a0260e01b7bffffffffffffffffffffffffffffffffffffffffffffffffffffffff1916817bffffffffffffffffffffffffffffffffffffffffffffffffffffffff1916149150506118f4565b600190505b949350505050565b600073ffffffffffffffffffffffffffffffffffffffff168273ffffffffffffffffffffffffffffffffffffffff16141561196c576040517f08c379a00000000000000000000000000000000000000000000000000000000081526004016119639061236b565b60405180910390fd5b611975816110ac565b156119b5576040517f08c379a00000000000000000000000000000000000000000000000000000000081526004016119ac9061226b565b60405180910390fd5b6119c160008383611705565b6001600360008473ffffffffffffffffffffffffffffffffffffffff1673ffffffffffffffffffffffffffffffffffffffff1681526020019081526020016000206000828254611a1191906124ff565b92505081905550816002600083815260200190815260200160002060006101000a81548173ffffffffffffffffffffffffffffffffffffffff021916908373ffffffffffffffffffffffffffffffffffffffff160217905550808273ffffffffffffffffffffffffffffffffffffffff16600073ffffffffffffffffffffffffffffffffffffffff167fddf252ad1be2c89b69c2b068fc378daa952ba7f163c4a11628f55a4df523b3ef60405160405180910390a45050565b600080823b905060008111915050919050565b6000611af0611aeb8461248b565b612466565b905082815260208101848484011115611b0c57611b0b61283d565b5b611b1784828561262e565b509392505050565b600081359050611b2e81612c92565b92915050565b600081359050611b4381612ca9565b92915050565b600081359050611b5881612cc0565b92915050565b600081519050611b6d81612cc0565b92915050565b600082601f830112611b8857611b87612838565b5b8135611b98848260208601611add565b91505092915050565b600081359050611bb081612cd7565b92915050565b600060208284031215611bcc57611bcb612847565b5b6000611bda84828501611b1f565b91505092915050565b60008060408385031215611bfa57611bf9612847565b5b6000611c0885828601611b1f565b9250506020611c1985828601611b1f565b9150509250929050565b600080600060608486031215611c3c57611c3b612847565b5b6000611c4a86828701611b1f565b9350506020611c5b86828701611b1f565b9250506040611c6c86828701611ba1565b9150509250925092565b60008060008060808587031215611c9057611c8f612847565b5b6000611c9e87828801611b1f565b9450506020611caf87828801611b1f565b9350506040611cc087828801611ba1565b925050606085013567ffffffffffffffff811115611ce157611ce0612842565b5b611ced87828801611b73565b91505092959194509250565b60008060408385031215611d1057611d0f612847565b5b6000611d1e85828601611b1f565b9250506020611d2f85828601611b34565b9150509250929050565b60008060408385031215611d5057611d4f612847565b5b6000611d5e85828601611b1f565b9250506020611d6f85828601611ba1565b9150509250929050565b600060208284031215611d8f57611d8e612847565b5b6000611d9d84828501611b49565b91505092915050565b600060208284031215611dbc57611dbb612847565b5b6000611dca84828501611b5e565b91505092915050565b600060208284031215611de957611de8612847565b5b6000611df784828501611ba1565b91505092915050565b60008060408385031215611e1757611e16612847565b5b6000611e2585828601611ba1565b9250506020611e3685828601611ba1565b9150509250929050565b611e49816125ba565b82525050565b611e58816125cc565b82525050565b6000611e69826124bc565b611e7381856124d2565b9350611e8381856020860161263d565b611e8c8161284c565b840191505092915050565b6000611ea2826124c7565b611eac81856124e3565b9350611ebc81856020860161263d565b611ec58161284c565b840191505092915050565b6000611edb826124c7565b611ee581856124f4565b9350611ef581856020860161263d565b80840191505092915050565b6000611f0e6013836124e3565b9150611f198261285d565b602082019050919050565b6000611f316032836124e3565b9150611f3c82612886565b604082019050919050565b6000611f54601c836124e3565b9150611f5f826128d5565b602082019050919050565b6000611f776024836124e3565b9150611f82826128fe565b604082019050919050565b6000611f9a6019836124e3565b9150611fa58261294d565b602082019050919050565b6000611fbd602c836124e3565b9150611fc882612976565b604082019050919050565b6000611fe0601c836124e3565b9150611feb826129c5565b602082019050919050565b60006120036038836124e3565b915061200e826129ee565b604082019050919050565b6000612026602a836124e3565b915061203182612a3d565b604082019050919050565b60006120496029836124e3565b915061205482612a8c565b604082019050919050565b600061206c6020836124e3565b915061207782612adb565b602082019050919050565b600061208f602c836124e3565b915061209a82612b04565b604082019050919050565b60006120b26029836124e3565b91506120bd82612b53565b604082019050919050565b60006120d5602f836124e3565b91506120e082612ba2565b604082019050919050565b60006120f86021836124e3565b915061210382612bf1565b604082019050919050565b600061211b6000836124e3565b915061212682612c40565b600082019050919050565b600061213e6031836124e3565b915061214982612c43565b604082019050919050565b61215d81612624565b82525050565b600061216f8285611ed0565b915061217b8284611ed0565b91508190509392505050565b600060208201905061219c6000830184611e40565b92915050565b60006080820190506121b76000830187611e40565b6121c46020830186611e40565b6121d16040830185612154565b81810360608301526121e38184611e5e565b905095945050505050565b60006020820190506122036000830184611e4f565b92915050565b600060208201905081810360008301526122238184611e97565b905092915050565b6000602082019050818103600083015261224481611f01565b9050919050565b6000602082019050818103600083015261226481611f24565b9050919050565b6000602082019050818103600083015261228481611f47565b9050919050565b600060208201905081810360008301526122a481611f6a565b9050919050565b600060208201905081810360008301526122c481611f8d565b9050919050565b600060208201905081810360008301526122e481611fb0565b9050919050565b6000602082019050818103600083015261230481611fd3565b9050919050565b6000602082019050818103600083015261232481611ff6565b9050919050565b6000602082019050818103600083015261234481612019565b9050919050565b600060208201905081810360008301526123648161203c565b9050919050565b600060208201905081810360008301526123848161205f565b9050919050565b600060208201905081810360008301526123a481612082565b9050919050565b600060208201905081810360008301526123c4816120a5565b9050919050565b600060208201905081810360008301526123e4816120c8565b9050919050565b60006020820190508181036000830152612404816120eb565b9050919050565b600060208201905081810360008301526124248161210e565b9050919050565b6000602082019050818103600083015261244481612131565b9050919050565b60006020820190506124606000830184612154565b92915050565b6000612470612481565b905061247c82826126a2565b919050565b6000604051905090565b600067ffffffffffffffff8211156124a6576124a5612809565b5b6124af8261284c565b9050602081019050919050565b600081519050919050565b600081519050919050565b600082825260208201905092915050565b600082825260208201905092915050565b600081905092915050565b600061250a82612624565b915061251583612624565b9250827fffffffffffffffffffffffffffffffffffffffffffffffffffffffffffffffff0382111561254a5761254961274d565b5b828201905092915050565b600061256082612624565b915061256b83612624565b92508261257b5761257a61277c565b5b828204905092915050565b600061259182612624565b915061259c83612624565b9250828210156125af576125ae61274d565b5b828203905092915050565b60006125c582612604565b9050919050565b60008115159050919050565b60007fffffffff0000000000000000000000000000000000000000000000000000000082169050919050565b600073ffffffffffffffffffffffffffffffffffffffff82169050919050565b6000819050919050565b82818337600083830152505050565b60005b8381101561265b578082015181840152602081019050612640565b8381111561266a576000848401525b50505050565b6000600282049050600182168061268857607f821691505b6020821081141561269c5761269b6127ab565b5b50919050565b6126ab8261284c565b810181811067ffffffffffffffff821117156126ca576126c9612809565b5b80604052505050565b60006126de82612624565b91507fffffffffffffffffffffffffffffffffffffffffffffffffffffffffffffffff8214156127115761271061274d565b5b600182019050919050565b600061272782612624565b915061273283612624565b9250826127425761274161277c565b5b828206905092915050565b7f4e487b7100000000000000000000000000000000000000000000000000000000600052601160045260246000fd5b7f4e487b7100000000000000000000000000000000000000000000000000000000600052601260045260246000fd5b7f4e487b7100000000000000000000000000000000000000000000000000000000600052602260045260246000fd5b7f4e487b7100000000000000000000000000000000000000000000000000000000600052603260045260246000fd5b7f4e487b7100000000000000000000000000000000000000000000000000000000600052604160045260246000fd5b600080fd5b600080fd5b600080fd5b600080fd5b6000601f19601f8301169050919050565b7f4d757374206f776e207468697320746f6b656e00000000000000000000000000600082015250565b7f4552433732313a207472616e7366657220746f206e6f6e20455243373231526560008201527f63656976657220696d706c656d656e7465720000000000000000000000000000602082015250565b7f4552433732313a20746f6b656e20616c7265616479206d696e74656400000000600082015250565b7f4552433732313a207472616e7366657220746f20746865207a65726f2061646460008201527f7265737300000000000000000000000000000000000000000000000000000000602082015250565b7f4552433732313a20617070726f766520746f2063616c6c657200000000000000600082015250565b7f4552433732313a206f70657261746f7220717565727920666f72206e6f6e657860008201527f697374656e7420746f6b656e0000000000000000000000000000000000000000602082015250565b7f4d7573742062652063616c6c65642062792073757065726f776e657200000000600082015250565b7f4552433732313a20617070726f76652063616c6c6572206973206e6f74206f7760008201527f6e6572206e6f7220617070726f76656420666f7220616c6c0000000000000000602082015250565b7f4552433732313a2062616c616e636520717565727920666f7220746865207a6560008201527f726f206164647265737300000000000000000000000000000000000000000000602082015250565b7f4552433732313a206f776e657220717565727920666f72206e6f6e657869737460008201527f656e7420746f6b656e0000000000000000000000000000000000000000000000602082015250565b7f4552433732313a206d696e7420746f20746865207a65726f2061646472657373600082015250565b7f4552433732313a20617070726f76656420717565727920666f72206e6f6e657860008201527f697374656e7420746f6b656e0000000000000000000000000000000000000000602082015250565b7f4552433732313a207472616e73666572206f6620746f6b656e2074686174206960008201527f73206e6f74206f776e0000000000000000000000000000000000000000000000602082015250565b7f4552433732314d657461646174613a2055524920717565727920666f72206e6f60008201527f6e6578697374656e7420746f6b656e0000000000000000000000000000000000602082015250565b7f4552433732313a20617070726f76616c20746f2063757272656e74206f776e6560008201527f7200000000000000000000000000000000000000000000000000000000000000602082015250565b50565b7f4552433732313a207472616e736665722063616c6c6572206973206e6f74206f60008201527f776e6572206e6f7220617070726f766564000000000000000000000000000000602082015250565b612c9b816125ba565b8114612ca657600080fd5b50565b612cb2816125cc565b8114612cbd57600080fd5b50565b612cc9816125d8565b8114612cd457600080fd5b50565b612ce081612624565b8114612ceb57600080fd5b5056fea26469706673582212203b8d710a90bcd3513522d08856ebd0a07bd90ade387037b322709e08f21c4b8d64736f6c63430008060033",
  "immutableReferences": {},
  "source": "// SPDX-License-Identifier: MIT\r\n\r\npragma solidity ^0.8.0;\r\n\r\nimport {ERC721} from \"./ERC721.sol\";\r\nimport {Any721Socket} from \"./Any721Socket.sol\";\r\n\r\ncontract Guardian is ERC721 {\r\n    constructor() ERC721(\"Guardian\", \"Guardian\") {}\r\n\r\n    function setSocket(address socket) public {\r\n        require(minter == address(0) && superowner == address(0));\r\n        minter = socket;\r\n        superowner = socket;\r\n    }\r\n\r\n    address public minter;\r\n\r\n    modifier onlyMinter() {\r\n        require(_msgSender() == minter, \"\");\r\n        _;\r\n    }\r\n\r\n    function safeMint(address to, uint256 tokenId) external onlyMinter {\r\n        _safeMint(to, tokenId);\r\n    }\r\n\r\n    // superowner can edit attributes of his tokens\r\n    address public superowner;\r\n\r\n    modifier onlySuperowner(uint256 tokenId) {\r\n        require(_msgSender() == superowner, \"Must be called by superowner\");\r\n        require(ownerOf(tokenId) == superowner, \"Must own this token\");\r\n        _;\r\n    }\r\n\r\n    function claim(uint256 tokenId) public {\r\n        _safeMint(msg.sender, tokenId);\r\n    }\r\n\r\n    mapping(uint256 => uint) private aura;\r\n\r\n    function Aura(uint256 tokenId) public view returns (uint) {\r\n        return aura[tokenId];\r\n    }\r\n\r\n    function SetAura(uint256 tokenId, uint _aura) public onlySuperowner(tokenId) {\r\n        aura[tokenId] = _aura;\r\n    }\r\n}\r\n\r\ncontract AnyGuardianSocket is Any721Socket {\r\n    constructor (address router, address underlying) Any721Socket(router, underlying) {}\r\n\r\n    function packAttributes(uint256 tokenId) override public view returns (string memory data) {\r\n        uint aura = Guardian(underlying).Aura(tokenId);\r\n        data = string(abi.encodePacked(data, aura));\r\n        return data;\r\n    }\r\n\r\n    /*\r\n    [0,1000]\r\n    // ordered list, [element,aura]\r\n    */\r\n    function recoverAttributes(uint256 tokenId, string calldata data) override internal {    \r\n        uint aura = uint(parseInt(data));\r\n\r\n        Guardian(underlying).SetAura(tokenId, aura);\r\n        emit LogSetGuardian(tokenId, aura);\r\n        return;\r\n    }\r\n\r\n    event LogSetGuardian(uint256 tokenId, uint aura);\r\n\r\n    function parseInt(string memory _a) internal pure returns (int) {\r\n        bytes memory bresult = bytes(_a);\r\n        int mint = 0;\r\n        bool negative = false;\r\n        for (uint i=0; i<bresult.length; i++){\r\n            if ((i == 0) && (bresult[i] == '-')) {\r\n                negative = true;\r\n            }\r\n            mint *= 10;\r\n            uint x = uint8(bresult[i]);\r\n            mint += int256(x) - 48;\r\n        }\r\n        if (negative) mint *= -1;\r\n        return mint;\r\n    }\r\n}",
  "sourcePath": "D:\\NFT-bridge\\contracts\\Any721SocketExample.sol",
  "compiler": {
    "name": "solc",
    "version": "0.8.6+commit.11564f7e.Emscripten.clang"
  },
  "schemaVersion": "3.4.3",
  "updatedAt": "2021-10-22T13:46:53.139Z",
  "devdoc": {
    "kind": "dev",
    "methods": {
      "approve(address,uint256)": {
        "details": "See {IERC721-approve}."
      },
      "balanceOf(address)": {
        "details": "See {IERC721-balanceOf}."
      },
      "getApproved(uint256)": {
        "details": "See {IERC721-getApproved}."
      },
      "isApprovedForAll(address,address)": {
        "details": "See {IERC721-isApprovedForAll}."
      },
      "name()": {
        "details": "See {IERC721Metadata-name}."
      },
      "ownerOf(uint256)": {
        "details": "See {IERC721-ownerOf}."
      },
      "safeTransferFrom(address,address,uint256)": {
        "details": "See {IERC721-safeTransferFrom}."
      },
      "safeTransferFrom(address,address,uint256,bytes)": {
        "details": "See {IERC721-safeTransferFrom}."
      },
      "setApprovalForAll(address,bool)": {
        "details": "See {IERC721-setApprovalForAll}."
      },
      "supportsInterface(bytes4)": {
        "details": "See {IERC165-supportsInterface}."
      },
      "symbol()": {
        "details": "See {IERC721Metadata-symbol}."
      },
      "tokenURI(uint256)": {
        "details": "See {IERC721Metadata-tokenURI}."
      },
      "transferFrom(address,address,uint256)": {
        "details": "See {IERC721-transferFrom}."
      }
    },
    "version": 1
  },
  "userdoc": {
    "kind": "user",
    "methods": {},
    "version": 1
  }
}