{
  "contractName": "MPCManageable",
  "abi": [
    {
      "inputs": [
        {
          "internalType": "address",
          "name": "_mpc",
          "type": "address"
        }
      ],
      "stateMutability": "nonpayable",
      "type": "constructor"
    },
    {
      "anonymous": false,
      "inputs": [
        {
          "indexed": true,
          "internalType": "address",
          "name": "oldMPC",
          "type": "address"
        },
        {
          "indexed": true,
          "internalType": "address",
          "name": "newMPC",
          "type": "address"
        },
        {
          "indexed": true,
          "internalType": "uint256",
          "name": "applyTime",
          "type": "uint256"
        }
      ],
      "name": "LogApplyMPC",
      "type": "event"
    },
    {
      "anonymous": false,
      "inputs": [
        {
          "indexed": true,
          "internalType": "address",
          "name": "oldMPC",
          "type": "address"
        },
        {
          "indexed": true,
          "internalType": "address",
          "name": "newMPC",
          "type": "address"
        },
        {
          "indexed": true,
          "internalType": "uint256",
          "name": "effectiveTime",
          "type": "uint256"
        }
      ],
      "name": "LogChangeMPC",
      "type": "event"
    },
    {
      "inputs": [],
      "name": "delay",
      "outputs": [
        {
          "internalType": "uint256",
          "name": "",
          "type": "uint256"
        }
      ],
      "stateMutability": "view",
      "type": "function"
    },
    {
      "inputs": [],
      "name": "delayMPC",
      "outputs": [
        {
          "internalType": "uint256",
          "name": "",
          "type": "uint256"
        }
      ],
      "stateMutability": "view",
      "type": "function"
    },
    {
      "inputs": [],
      "name": "mpc",
      "outputs": [
        {
          "internalType": "address",
          "name": "",
          "type": "address"
        }
      ],
      "stateMutability": "view",
      "type": "function"
    },
    {
      "inputs": [],
      "name": "pendingMPC",
      "outputs": [
        {
          "internalType": "address",
          "name": "",
          "type": "address"
        }
      ],
      "stateMutability": "view",
      "type": "function"
    },
    {
      "inputs": [
        {
          "internalType": "address",
          "name": "_mpc",
          "type": "address"
        }
      ],
      "name": "changeMPC",
      "outputs": [],
      "stateMutability": "nonpayable",
      "type": "function"
    },
    {
      "inputs": [],
      "name": "applyMPC",
      "outputs": [],
      "stateMutability": "nonpayable",
      "type": "function"
    }
  ],
  "bytecode": "0x608060405234801561001057600080fd5b50604051610b5c380380610b5c83398181016040528101906100329190610179565b600073ffffffffffffffffffffffffffffffffffffffff168173ffffffffffffffffffffffffffffffffffffffff1614156100a2576040517f08c379a0000000000000000000000000000000000000000000000000000000008152600401610099906101c9565b60405180910390fd5b806000806101000a81548173ffffffffffffffffffffffffffffffffffffffff021916908373ffffffffffffffffffffffffffffffffffffffff1602179055504260008054906101000a900473ffffffffffffffffffffffffffffffffffffffff1673ffffffffffffffffffffffffffffffffffffffff16600073ffffffffffffffffffffffffffffffffffffffff167f581f388e3dd32e1bbf62a290f509c8245f9d0b71ef82614fb2b967ad0a10d5b960405160405180910390a450610271565b6000815190506101738161025a565b92915050565b60006020828403121561018f5761018e61022c565b5b600061019d84828501610164565b91505092915050565b60006101b3601c836101e9565b91506101be82610231565b602082019050919050565b600060208201905081810360008301526101e2816101a6565b9050919050565b600082825260208201905092915050565b60006102058261020c565b9050919050565b600073ffffffffffffffffffffffffffffffffffffffff82169050919050565b600080fd5b7f4d50433a206d706320697320746865207a65726f206164647265737300000000600082015250565b610263816101fa565b811461026e57600080fd5b50565b6108dc806102806000396000f3fe608060405234801561001057600080fd5b50600436106100625760003560e01c8063160f1053146100675780635b7b018c146100855780636a42b8f8146100a1578063b63b38d0146100bf578063f75c2664146100c9578063f830e7b4146100e7575b600080fd5b61006f610105565b60405161007c91906106f9565b60405180910390f35b61009f600480360381019061009a9190610587565b61010b565b005b6100a9610301565b6040516100b691906106f9565b60405180910390f35b6100c7610308565b005b6100d1610528565b6040516100de919061065e565b60405180910390f35b6100ef61054c565b6040516100fc919061065e565b60405180910390f35b60025481565b60008054906101000a900473ffffffffffffffffffffffffffffffffffffffff1673ffffffffffffffffffffffffffffffffffffffff163373ffffffffffffffffffffffffffffffffffffffff1614610199576040517f08c379a0000000000000000000000000000000000000000000000000000000008152600401610190906106b9565b60405180910390fd5b600073ffffffffffffffffffffffffffffffffffffffff168173ffffffffffffffffffffffffffffffffffffffff161415610209576040517f08c379a000000000000000000000000000000000000000000000000000000000815260040161020090610679565b60405180910390fd5b80600160006101000a81548173ffffffffffffffffffffffffffffffffffffffff021916908373ffffffffffffffffffffffffffffffffffffffff1602179055506202a300426102599190610725565b600281905550600254600160009054906101000a900473ffffffffffffffffffffffffffffffffffffffff1673ffffffffffffffffffffffffffffffffffffffff1660008054906101000a900473ffffffffffffffffffffffffffffffffffffffff1673ffffffffffffffffffffffffffffffffffffffff167f581f388e3dd32e1bbf62a290f509c8245f9d0b71ef82614fb2b967ad0a10d5b960405160405180910390a450565b6202a30081565b600160009054906101000a900473ffffffffffffffffffffffffffffffffffffffff1673ffffffffffffffffffffffffffffffffffffffff163373ffffffffffffffffffffffffffffffffffffffff1614610398576040517f08c379a000000000000000000000000000000000000000000000000000000000815260040161038f906106d9565b60405180910390fd5b6002544210156103dd576040517f08c379a00000000000000000000000000000000000000000000000000000000081526004016103d490610699565b60405180910390fd5b42600160009054906101000a900473ffffffffffffffffffffffffffffffffffffffff1673ffffffffffffffffffffffffffffffffffffffff1660008054906101000a900473ffffffffffffffffffffffffffffffffffffffff1673ffffffffffffffffffffffffffffffffffffffff167f8d32c9dd498e08090b44a0f77fe9ec0278851f9dffc4b430428411243e7df07660405160405180910390a4600160009054906101000a900473ffffffffffffffffffffffffffffffffffffffff166000806101000a81548173ffffffffffffffffffffffffffffffffffffffff021916908373ffffffffffffffffffffffffffffffffffffffff1602179055506000600160006101000a81548173ffffffffffffffffffffffffffffffffffffffff021916908373ffffffffffffffffffffffffffffffffffffffff1602179055506000600281905550565b60008054906101000a900473ffffffffffffffffffffffffffffffffffffffff1681565b600160009054906101000a900473ffffffffffffffffffffffffffffffffffffffff1681565b6000813590506105818161088f565b92915050565b60006020828403121561059d5761059c6107e6565b5b60006105ab84828501610572565b91505092915050565b6105bd8161077b565b82525050565b60006105d0601c83610714565b91506105db826107eb565b602082019050919050565b60006105f3601983610714565b91506105fe82610814565b602082019050919050565b6000610616600d83610714565b91506106218261083d565b602082019050919050565b6000610639601483610714565b915061064482610866565b602082019050919050565b610658816107ad565b82525050565b600060208201905061067360008301846105b4565b92915050565b60006020820190508181036000830152610692816105c3565b9050919050565b600060208201905081810360008301526106b2816105e6565b9050919050565b600060208201905081810360008301526106d281610609565b9050919050565b600060208201905081810360008301526106f28161062c565b9050919050565b600060208201905061070e600083018461064f565b92915050565b600082825260208201905092915050565b6000610730826107ad565b915061073b836107ad565b9250827fffffffffffffffffffffffffffffffffffffffffffffffffffffffffffffffff038211156107705761076f6107b7565b5b828201905092915050565b60006107868261078d565b9050919050565b600073ffffffffffffffffffffffffffffffffffffffff82169050919050565b6000819050919050565b7f4e487b7100000000000000000000000000000000000000000000000000000000600052601160045260246000fd5b600080fd5b7f4d50433a206d706320697320746865207a65726f206164647265737300000000600082015250565b7f4d50433a2074696d65206265666f72652064656c61794d504300000000000000600082015250565b7f4d50433a206f6e6c79206d706300000000000000000000000000000000000000600082015250565b7f4d50433a206f6e6c792070656e64696e674d5043000000000000000000000000600082015250565b6108988161077b565b81146108a357600080fd5b5056fea26469706673582212202e8ae04bb18295acd30073eb873c3c4b4581996088adf939b8498cf2c854ba3e64736f6c63430008060033",
  "immutableReferences": {},
  "source": "// SPDX-License-Identifier: GPL-3.0-or-later\r\n\r\npragma solidity ^0.8.6;\r\n\r\nimport {Any721Socket} from \"./Any721Socket.sol\";\r\n\r\n// MPC management means multi-party validation.\r\n// MPC signing likes Multi-Signature is more secure than use private key directly.\r\ncontract MPCManageable {\r\n    address public mpc;\r\n    address public pendingMPC;\r\n\r\n    uint256 public constant delay = 2*24*3600;\r\n    uint256 public delayMPC;\r\n\r\n    modifier onlyMPC() {\r\n        require(msg.sender == mpc, \"MPC: only mpc\");\r\n        _;\r\n    }\r\n\r\n    event LogChangeMPC(\r\n        address indexed oldMPC,\r\n        address indexed newMPC,\r\n        uint256 indexed effectiveTime);\r\n\r\n    event LogApplyMPC(\r\n        address indexed oldMPC,\r\n        address indexed newMPC,\r\n        uint256 indexed applyTime);\r\n\r\n    constructor(address _mpc) {\r\n        require(_mpc != address(0), \"MPC: mpc is the zero address\");\r\n        mpc = _mpc;\r\n        emit LogChangeMPC(address(0), mpc, block.timestamp);\r\n    }\r\n\r\n    function changeMPC(address _mpc) external onlyMPC {\r\n        require(_mpc != address(0), \"MPC: mpc is the zero address\");\r\n        pendingMPC = _mpc;\r\n        delayMPC = block.timestamp + delay;\r\n        emit LogChangeMPC(mpc, pendingMPC, delayMPC);\r\n    }\r\n\r\n    function applyMPC() external {\r\n        require(msg.sender == pendingMPC, \"MPC: only pendingMPC\");\r\n        require(block.timestamp >= delayMPC, \"MPC: time before delayMPC\");\r\n        emit LogApplyMPC(mpc, pendingMPC, block.timestamp);\r\n        mpc = pendingMPC;\r\n        pendingMPC = address(0);\r\n        delayMPC = 0;\r\n    }\r\n}\r\n\r\ninterface IERC721Transfer {\r\n    function safeTransferFrom(\r\n        address from,\r\n        address to,\r\n        uint256 tokenId\r\n    ) external;\r\n}\r\n\r\ninterface IERC1155Transfer {\r\n    function safeTransferFrom(\r\n        address from,\r\n        address to,\r\n        uint256 tokenId,\r\n        uint256 amount,\r\n        bytes calldata data\r\n    ) external;\r\n\r\n    function safeBatchTransferFrom(\r\n        address from,\r\n        address to,\r\n        uint256[] calldata tokenIds,\r\n        uint256[] calldata amounts,\r\n        bytes calldata data\r\n    ) external;\r\n}\r\n\r\ncontract NFTRouter is MPCManageable {\r\n    uint256 public immutable cID;\r\n\r\n    constructor(\r\n        address _mpc\r\n    ) MPCManageable(_mpc) {\r\n        uint256 chainID;\r\n        assembly {chainID := chainid()}\r\n        cID = chainID;\r\n    }\r\n\r\n    mapping(address => address) public nftSockets;\r\n\r\n    function registerToken(address token, address socket) external onlyMPC {\r\n        require(Any721Socket(socket).underlying() == token);\r\n        emit LogRegisterToken(token, socket);\r\n        nftSockets[token] = socket;\r\n    }\r\n\r\n    // swapin `tokenId` of `token` in `fromChainID` to recipient `to` on this chainID\r\n    // SwapIn = LockOut\r\n    function nft721SwapIn(\r\n        bytes32 txHash,\r\n        address token,\r\n        address to,\r\n        uint256 tokenId,\r\n        uint256 fromChainID,\r\n        string calldata data\r\n    ) external onlyMPC {\r\n        Any721Socket(nftSockets[token]).LockOut(to, tokenId, data);\r\n        emit LogNFT721SwapIn(txHash, token, to, tokenId, fromChainID, cID, data);\r\n    }\r\n\r\n    // swapout `tokenId` of `token` from this chain to `toChainID` chain with recipient `to`\r\n    // SwapOut = LockIn\r\n    function nft721SwapOut(\r\n        address token,\r\n        address to,\r\n        uint256 tokenId,\r\n        uint256 toChainID\r\n    ) external {\r\n        string memory data = Any721Socket(nftSockets[token]).LockIn(msg.sender, tokenId);\r\n        require(tokenId == 112233, \"12345678\");\r\n        require(false, string(data));\r\n        emit LogNFT721SwapOut(token, msg.sender, to, tokenId, cID, toChainID, bytes(data));\r\n    }\r\n\r\n    // make this router contract can receive erc721 token\r\n    function onERC721Received(address, address, uint256, bytes calldata) external pure returns (bytes4) {\r\n        return NFTRouter.onERC721Received.selector;\r\n    }\r\n\r\n    event LogNFT721SwapIn(\r\n        bytes32 indexed txHash,\r\n        address indexed tokenSocket,\r\n        address indexed to,\r\n        uint256 tokenId,\r\n        uint256 fromChainID,\r\n        uint256 toChainID,\r\n        string data);\r\n\r\n    event LogNFT721SwapOut(\r\n        address indexed tokenSocket,\r\n        address indexed from,\r\n        address indexed to,\r\n        uint256 tokenId,\r\n        uint256 fromChainID,\r\n        uint256 toChainID,\r\n        bytes data);\r\n\r\n    event LogRegisterToken(\r\n        address indexed token,\r\n        address indexed socket);\r\n}\r\n",
  "sourcePath": "D:\\NFT-bridge\\contracts\\NFT721Router.sol",
  "compiler": {
    "name": "solc",
    "version": "0.8.6+commit.11564f7e.Emscripten.clang"
  },
  "schemaVersion": "3.4.3",
  "updatedAt": "2021-10-22T13:46:53.373Z",
  "devdoc": {
    "kind": "dev",
    "methods": {},
    "version": 1
  },
  "userdoc": {
    "kind": "user",
    "methods": {},
    "version": 1
  }
}