{
  "contractName": "NFTRouter",
  "abi": [
    {
      "inputs": [
        {
          "internalType": "address",
          "name": "_mpc",
          "type": "address"
        }
      ],
      "stateMutability": "nonpayable",
      "type": "constructor"
    },
    {
      "anonymous": false,
      "inputs": [
        {
          "indexed": true,
          "internalType": "address",
          "name": "oldMPC",
          "type": "address"
        },
        {
          "indexed": true,
          "internalType": "address",
          "name": "newMPC",
          "type": "address"
        },
        {
          "indexed": true,
          "internalType": "uint256",
          "name": "applyTime",
          "type": "uint256"
        }
      ],
      "name": "LogApplyMPC",
      "type": "event"
    },
    {
      "anonymous": false,
      "inputs": [
        {
          "indexed": true,
          "internalType": "address",
          "name": "oldMPC",
          "type": "address"
        },
        {
          "indexed": true,
          "internalType": "address",
          "name": "newMPC",
          "type": "address"
        },
        {
          "indexed": true,
          "internalType": "uint256",
          "name": "effectiveTime",
          "type": "uint256"
        }
      ],
      "name": "LogChangeMPC",
      "type": "event"
    },
    {
      "anonymous": false,
      "inputs": [
        {
          "indexed": true,
          "internalType": "bytes32",
          "name": "txHash",
          "type": "bytes32"
        },
        {
          "indexed": true,
          "internalType": "address",
          "name": "tokenSocket",
          "type": "address"
        },
        {
          "indexed": true,
          "internalType": "address",
          "name": "to",
          "type": "address"
        },
        {
          "indexed": false,
          "internalType": "uint256",
          "name": "tokenId",
          "type": "uint256"
        },
        {
          "indexed": false,
          "internalType": "uint256",
          "name": "fromChainID",
          "type": "uint256"
        },
        {
          "indexed": false,
          "internalType": "uint256",
          "name": "toChainID",
          "type": "uint256"
        },
        {
          "indexed": false,
          "internalType": "string",
          "name": "data",
          "type": "string"
        }
      ],
      "name": "LogNFT721SwapIn",
      "type": "event"
    },
    {
      "anonymous": false,
      "inputs": [
        {
          "indexed": true,
          "internalType": "address",
          "name": "tokenSocket",
          "type": "address"
        },
        {
          "indexed": true,
          "internalType": "address",
          "name": "from",
          "type": "address"
        },
        {
          "indexed": true,
          "internalType": "address",
          "name": "to",
          "type": "address"
        },
        {
          "indexed": false,
          "internalType": "uint256",
          "name": "tokenId",
          "type": "uint256"
        },
        {
          "indexed": false,
          "internalType": "uint256",
          "name": "fromChainID",
          "type": "uint256"
        },
        {
          "indexed": false,
          "internalType": "uint256",
          "name": "toChainID",
          "type": "uint256"
        },
        {
          "indexed": false,
          "internalType": "bytes",
          "name": "data",
          "type": "bytes"
        }
      ],
      "name": "LogNFT721SwapOut",
      "type": "event"
    },
    {
      "anonymous": false,
      "inputs": [
        {
          "indexed": true,
          "internalType": "address",
          "name": "token",
          "type": "address"
        },
        {
          "indexed": true,
          "internalType": "address",
          "name": "socket",
          "type": "address"
        }
      ],
      "name": "LogRegisterToken",
      "type": "event"
    },
    {
      "inputs": [],
      "name": "applyMPC",
      "outputs": [],
      "stateMutability": "nonpayable",
      "type": "function"
    },
    {
      "inputs": [],
      "name": "cID",
      "outputs": [
        {
          "internalType": "uint256",
          "name": "",
          "type": "uint256"
        }
      ],
      "stateMutability": "view",
      "type": "function"
    },
    {
      "inputs": [
        {
          "internalType": "address",
          "name": "_mpc",
          "type": "address"
        }
      ],
      "name": "changeMPC",
      "outputs": [],
      "stateMutability": "nonpayable",
      "type": "function"
    },
    {
      "inputs": [],
      "name": "delay",
      "outputs": [
        {
          "internalType": "uint256",
          "name": "",
          "type": "uint256"
        }
      ],
      "stateMutability": "view",
      "type": "function"
    },
    {
      "inputs": [],
      "name": "delayMPC",
      "outputs": [
        {
          "internalType": "uint256",
          "name": "",
          "type": "uint256"
        }
      ],
      "stateMutability": "view",
      "type": "function"
    },
    {
      "inputs": [],
      "name": "mpc",
      "outputs": [
        {
          "internalType": "address",
          "name": "",
          "type": "address"
        }
      ],
      "stateMutability": "view",
      "type": "function"
    },
    {
      "inputs": [
        {
          "internalType": "address",
          "name": "",
          "type": "address"
        }
      ],
      "name": "nftSockets",
      "outputs": [
        {
          "internalType": "address",
          "name": "",
          "type": "address"
        }
      ],
      "stateMutability": "view",
      "type": "function"
    },
    {
      "inputs": [],
      "name": "pendingMPC",
      "outputs": [
        {
          "internalType": "address",
          "name": "",
          "type": "address"
        }
      ],
      "stateMutability": "view",
      "type": "function"
    },
    {
      "inputs": [
        {
          "internalType": "address",
          "name": "token",
          "type": "address"
        },
        {
          "internalType": "address",
          "name": "socket",
          "type": "address"
        }
      ],
      "name": "registerToken",
      "outputs": [],
      "stateMutability": "nonpayable",
      "type": "function"
    },
    {
      "inputs": [
        {
          "internalType": "bytes32",
          "name": "txHash",
          "type": "bytes32"
        },
        {
          "internalType": "address",
          "name": "token",
          "type": "address"
        },
        {
          "internalType": "address",
          "name": "to",
          "type": "address"
        },
        {
          "internalType": "uint256",
          "name": "tokenId",
          "type": "uint256"
        },
        {
          "internalType": "uint256",
          "name": "fromChainID",
          "type": "uint256"
        },
        {
          "internalType": "string",
          "name": "data",
          "type": "string"
        }
      ],
      "name": "nft721SwapIn",
      "outputs": [],
      "stateMutability": "nonpayable",
      "type": "function"
    },
    {
      "inputs": [
        {
          "internalType": "address",
          "name": "token",
          "type": "address"
        },
        {
          "internalType": "address",
          "name": "to",
          "type": "address"
        },
        {
          "internalType": "uint256",
          "name": "tokenId",
          "type": "uint256"
        },
        {
          "internalType": "uint256",
          "name": "toChainID",
          "type": "uint256"
        }
      ],
      "name": "nft721SwapOut",
      "outputs": [],
      "stateMutability": "nonpayable",
      "type": "function"
    },
    {
      "inputs": [
        {
          "internalType": "address",
          "name": "",
          "type": "address"
        },
        {
          "internalType": "address",
          "name": "",
          "type": "address"
        },
        {
          "internalType": "uint256",
          "name": "",
          "type": "uint256"
        },
        {
          "internalType": "bytes",
          "name": "",
          "type": "bytes"
        }
      ],
      "name": "onERC721Received",
      "outputs": [
        {
          "internalType": "bytes4",
          "name": "",
          "type": "bytes4"
        }
      ],
      "stateMutability": "pure",
      "type": "function"
    }
  ],
  "bytecode": "0x60a06040523480156200001157600080fd5b5060405162001b2438038062001b24833981810160405281019062000037919062000194565b80600073ffffffffffffffffffffffffffffffffffffffff168173ffffffffffffffffffffffffffffffffffffffff161415620000ab576040517f08c379a0000000000000000000000000000000000000000000000000000000008152600401620000a290620001ed565b60405180910390fd5b806000806101000a81548173ffffffffffffffffffffffffffffffffffffffff021916908373ffffffffffffffffffffffffffffffffffffffff1602179055504260008054906101000a900473ffffffffffffffffffffffffffffffffffffffff1673ffffffffffffffffffffffffffffffffffffffff16600073ffffffffffffffffffffffffffffffffffffffff167f581f388e3dd32e1bbf62a290f509c8245f9d0b71ef82614fb2b967ad0a10d5b960405160405180910390a4506000469050806080818152505050506200029c565b6000815190506200018e8162000282565b92915050565b600060208284031215620001ad57620001ac62000254565b5b6000620001bd848285016200017d565b91505092915050565b6000620001d5601c836200020f565b9150620001e28262000259565b602082019050919050565b600060208201905081810360008301526200020881620001c6565b9050919050565b600082825260208201905092915050565b60006200022d8262000234565b9050919050565b600073ffffffffffffffffffffffffffffffffffffffff82169050919050565b600080fd5b7f4d50433a206d706320697320746865207a65726f206164647265737300000000600082015250565b6200028d8162000220565b81146200029957600080fd5b50565b60805161185e620002c6600039600081816104290152818161088a0152610cb4015261185e6000f3fe608060405234801561001057600080fd5b50600436106100b45760003560e01c80636a42b8f8116100715780636a42b8f81461018b57806399a2f2d7146101a9578063b63b38d0146101c7578063d54123ee146101d1578063f75c2664146101ed578063f830e7b41461020b576100b4565b8063135b06b1146100b9578063150b7a02146100e9578063160f1053146101195780632ac3c3fe146101375780634739f7e5146101535780635b7b018c1461016f575b600080fd5b6100d360048036038101906100ce9190610eae565b610229565b6040516100e091906112aa565b60405180910390f35b61010360048036038101906100fe9190610f48565b61025c565b604051610110919061132e565b60405180910390f35b610121610271565b60405161012e919061140b565b60405180910390f35b610151600480360381019061014c9190611037565b610277565b005b61016d60048036038101906101689190610f08565b61046c565b005b61018960048036038101906101849190610eae565b61068b565b005b610193610881565b6040516101a0919061140b565b60405180910390f35b6101b1610888565b6040516101be919061140b565b60405180910390f35b6101cf6108ac565b005b6101eb60048036038101906101e69190610fd0565b610acc565b005b6101f5610cf4565b60405161020291906112aa565b60405180910390f35b610213610d18565b60405161022091906112aa565b60405180910390f35b60036020528060005260406000206000915054906101000a900473ffffffffffffffffffffffffffffffffffffffff1681565b600063150b7a0260e01b905095945050505050565b60025481565b60008054906101000a900473ffffffffffffffffffffffffffffffffffffffff1673ffffffffffffffffffffffffffffffffffffffff163373ffffffffffffffffffffffffffffffffffffffff1614610305576040517f08c379a00000000000000000000000000000000000000000000000000000000081526004016102fc906113cb565b60405180910390fd5b600360008773ffffffffffffffffffffffffffffffffffffffff1673ffffffffffffffffffffffffffffffffffffffff16815260200190815260200160002060009054906101000a900473ffffffffffffffffffffffffffffffffffffffff1673ffffffffffffffffffffffffffffffffffffffff1663d5f3fead868685856040518563ffffffff1660e01b81526004016103a394939291906112ee565b600060405180830381600087803b1580156103bd57600080fd5b505af11580156103d1573d6000803e3d6000fd5b505050508473ffffffffffffffffffffffffffffffffffffffff168673ffffffffffffffffffffffffffffffffffffffff16887f2fa051dd8eaa44eec554dd380efeefdbd7e906189def40d4b88795090c461f0687877f0000000000000000000000000000000000000000000000000000000000000000888860405161045b959493929190611472565b60405180910390a450505050505050565b60008054906101000a900473ffffffffffffffffffffffffffffffffffffffff1673ffffffffffffffffffffffffffffffffffffffff163373ffffffffffffffffffffffffffffffffffffffff16146104fa576040517f08c379a00000000000000000000000000000000000000000000000000000000081526004016104f1906113cb565b60405180910390fd5b8173ffffffffffffffffffffffffffffffffffffffff168173ffffffffffffffffffffffffffffffffffffffff16636f307dc36040518163ffffffff1660e01b815260040160206040518083038186803b15801561055757600080fd5b505afa15801561056b573d6000803e3d6000fd5b505050506040513d601f19601f8201168201806040525081019061058f9190610edb565b73ffffffffffffffffffffffffffffffffffffffff16146105af57600080fd5b8073ffffffffffffffffffffffffffffffffffffffff168273ffffffffffffffffffffffffffffffffffffffff167f069000d655e9037e60d0849fb38d3ecbc2c04460e0c70b915a3fffbb0377d17560405160405180910390a380600360008473ffffffffffffffffffffffffffffffffffffffff1673ffffffffffffffffffffffffffffffffffffffff16815260200190815260200160002060006101000a81548173ffffffffffffffffffffffffffffffffffffffff021916908373ffffffffffffffffffffffffffffffffffffffff1602179055505050565b60008054906101000a900473ffffffffffffffffffffffffffffffffffffffff1673ffffffffffffffffffffffffffffffffffffffff163373ffffffffffffffffffffffffffffffffffffffff1614610719576040517f08c379a0000000000000000000000000000000000000000000000000000000008152600401610710906113cb565b60405180910390fd5b600073ffffffffffffffffffffffffffffffffffffffff168173ffffffffffffffffffffffffffffffffffffffff161415610789576040517f08c379a00000000000000000000000000000000000000000000000000000000081526004016107809061136b565b60405180910390fd5b80600160006101000a81548173ffffffffffffffffffffffffffffffffffffffff021916908373ffffffffffffffffffffffffffffffffffffffff1602179055506202a300426107d9919061154e565b600281905550600254600160009054906101000a900473ffffffffffffffffffffffffffffffffffffffff1673ffffffffffffffffffffffffffffffffffffffff1660008054906101000a900473ffffffffffffffffffffffffffffffffffffffff1673ffffffffffffffffffffffffffffffffffffffff167f581f388e3dd32e1bbf62a290f509c8245f9d0b71ef82614fb2b967ad0a10d5b960405160405180910390a450565b6202a30081565b7f000000000000000000000000000000000000000000000000000000000000000081565b600160009054906101000a900473ffffffffffffffffffffffffffffffffffffffff1673ffffffffffffffffffffffffffffffffffffffff163373ffffffffffffffffffffffffffffffffffffffff161461093c576040517f08c379a0000000000000000000000000000000000000000000000000000000008152600401610933906113eb565b60405180910390fd5b600254421015610981576040517f08c379a00000000000000000000000000000000000000000000000000000000081526004016109789061138b565b60405180910390fd5b42600160009054906101000a900473ffffffffffffffffffffffffffffffffffffffff1673ffffffffffffffffffffffffffffffffffffffff1660008054906101000a900473ffffffffffffffffffffffffffffffffffffffff1673ffffffffffffffffffffffffffffffffffffffff167f8d32c9dd498e08090b44a0f77fe9ec0278851f9dffc4b430428411243e7df07660405160405180910390a4600160009054906101000a900473ffffffffffffffffffffffffffffffffffffffff166000806101000a81548173ffffffffffffffffffffffffffffffffffffffff021916908373ffffffffffffffffffffffffffffffffffffffff1602179055506000600160006101000a81548173ffffffffffffffffffffffffffffffffffffffff021916908373ffffffffffffffffffffffffffffffffffffffff1602179055506000600281905550565b6000600360008673ffffffffffffffffffffffffffffffffffffffff1673ffffffffffffffffffffffffffffffffffffffff16815260200190815260200160002060009054906101000a900473ffffffffffffffffffffffffffffffffffffffff1673ffffffffffffffffffffffffffffffffffffffff166312caebce33856040518363ffffffff1660e01b8152600401610b689291906112c5565b600060405180830381600087803b158015610b8257600080fd5b505af1158015610b96573d6000803e3d6000fd5b505050506040513d6000823e3d601f19601f82011682018060405250810190610bbf91906110e6565b90506201b6698314610c06576040517f08c379a0000000000000000000000000000000000000000000000000000000008152600401610bfd906113ab565b60405180910390fd5b60008190610c4a576040517f08c379a0000000000000000000000000000000000000000000000000000000008152600401610c419190611349565b60405180910390fd5b508373ffffffffffffffffffffffffffffffffffffffff163373ffffffffffffffffffffffffffffffffffffffff168673ffffffffffffffffffffffffffffffffffffffff167f8ef0d7d8b96825500b3d692d995a543110f8a93f16b7be5d23b5960fd4363bdc867f00000000000000000000000000000000000000000000000000000000000000008787604051610ce59493929190611426565b60405180910390a45050505050565b60008054906101000a900473ffffffffffffffffffffffffffffffffffffffff1681565b600160009054906101000a900473ffffffffffffffffffffffffffffffffffffffff1681565b6000610d51610d4c846114e5565b6114c0565b905082815260208101848484011115610d6d57610d6c6116f6565b5b610d78848285611625565b509392505050565b600081359050610d8f816117e3565b92915050565b600081519050610da4816117e3565b92915050565b600081359050610db9816117fa565b92915050565b60008083601f840112610dd557610dd46116ec565b5b8235905067ffffffffffffffff811115610df257610df16116e7565b5b602083019150836001820283011115610e0e57610e0d6116f1565b5b9250929050565b60008083601f840112610e2b57610e2a6116ec565b5b8235905067ffffffffffffffff811115610e4857610e476116e7565b5b602083019150836001820283011115610e6457610e636116f1565b5b9250929050565b600082601f830112610e8057610e7f6116ec565b5b8151610e90848260208601610d3e565b91505092915050565b600081359050610ea881611811565b92915050565b600060208284031215610ec457610ec3611700565b5b6000610ed284828501610d80565b91505092915050565b600060208284031215610ef157610ef0611700565b5b6000610eff84828501610d95565b91505092915050565b60008060408385031215610f1f57610f1e611700565b5b6000610f2d85828601610d80565b9250506020610f3e85828601610d80565b9150509250929050565b600080600080600060808688031215610f6457610f63611700565b5b6000610f7288828901610d80565b9550506020610f8388828901610d80565b9450506040610f9488828901610e99565b935050606086013567ffffffffffffffff811115610fb557610fb46116fb565b5b610fc188828901610dbf565b92509250509295509295909350565b60008060008060808587031215610fea57610fe9611700565b5b6000610ff887828801610d80565b945050602061100987828801610d80565b935050604061101a87828801610e99565b925050606061102b87828801610e99565b91505092959194509250565b600080600080600080600060c0888a03121561105657611055611700565b5b60006110648a828b01610daa565b97505060206110758a828b01610d80565b96505060406110868a828b01610d80565b95505060606110978a828b01610e99565b94505060806110a88a828b01610e99565b93505060a088013567ffffffffffffffff8111156110c9576110c86116fb565b5b6110d58a828b01610e15565b925092505092959891949750929550565b6000602082840312156110fc576110fb611700565b5b600082015167ffffffffffffffff81111561111a576111196116fb565b5b61112684828501610e6b565b91505092915050565b611138816115a4565b82525050565b611147816115c0565b82525050565b600061115882611516565b611162818561152c565b9350611172818560208601611625565b61117b81611705565b840191505092915050565b6000611192838561153d565b935061119f838584611616565b6111a883611705565b840190509392505050565b60006111be82611521565b6111c8818561153d565b93506111d8818560208601611625565b6111e181611705565b840191505092915050565b60006111f9601c8361153d565b915061120482611716565b602082019050919050565b600061121c60198361153d565b91506112278261173f565b602082019050919050565b600061123f60088361153d565b915061124a82611768565b602082019050919050565b6000611262600d8361153d565b915061126d82611791565b602082019050919050565b600061128560148361153d565b9150611290826117ba565b602082019050919050565b6112a48161160c565b82525050565b60006020820190506112bf600083018461112f565b92915050565b60006040820190506112da600083018561112f565b6112e7602083018461129b565b9392505050565b6000606082019050611303600083018761112f565b611310602083018661129b565b8181036040830152611323818486611186565b905095945050505050565b6000602082019050611343600083018461113e565b92915050565b6000602082019050818103600083015261136381846111b3565b905092915050565b60006020820190508181036000830152611384816111ec565b9050919050565b600060208201905081810360008301526113a48161120f565b9050919050565b600060208201905081810360008301526113c481611232565b9050919050565b600060208201905081810360008301526113e481611255565b9050919050565b6000602082019050818103600083015261140481611278565b9050919050565b6000602082019050611420600083018461129b565b92915050565b600060808201905061143b600083018761129b565b611448602083018661129b565b611455604083018561129b565b8181036060830152611467818461114d565b905095945050505050565b6000608082019050611487600083018861129b565b611494602083018761129b565b6114a1604083018661129b565b81810360608301526114b4818486611186565b90509695505050505050565b60006114ca6114db565b90506114d68282611658565b919050565b6000604051905090565b600067ffffffffffffffff821115611500576114ff6116b8565b5b61150982611705565b9050602081019050919050565b600081519050919050565b600081519050919050565b600082825260208201905092915050565b600082825260208201905092915050565b60006115598261160c565b91506115648361160c565b9250827fffffffffffffffffffffffffffffffffffffffffffffffffffffffffffffffff0382111561159957611598611689565b5b828201905092915050565b60006115af826115ec565b9050919050565b6000819050919050565b60007fffffffff0000000000000000000000000000000000000000000000000000000082169050919050565b600073ffffffffffffffffffffffffffffffffffffffff82169050919050565b6000819050919050565b82818337600083830152505050565b60005b83811015611643578082015181840152602081019050611628565b83811115611652576000848401525b50505050565b61166182611705565b810181811067ffffffffffffffff821117156116805761167f6116b8565b5b80604052505050565b7f4e487b7100000000000000000000000000000000000000000000000000000000600052601160045260246000fd5b7f4e487b7100000000000000000000000000000000000000000000000000000000600052604160045260246000fd5b600080fd5b600080fd5b600080fd5b600080fd5b600080fd5b600080fd5b6000601f19601f8301169050919050565b7f4d50433a206d706320697320746865207a65726f206164647265737300000000600082015250565b7f4d50433a2074696d65206265666f72652064656c61794d504300000000000000600082015250565b7f3132333435363738000000000000000000000000000000000000000000000000600082015250565b7f4d50433a206f6e6c79206d706300000000000000000000000000000000000000600082015250565b7f4d50433a206f6e6c792070656e64696e674d5043000000000000000000000000600082015250565b6117ec816115a4565b81146117f757600080fd5b50565b611803816115b6565b811461180e57600080fd5b50565b61181a8161160c565b811461182557600080fd5b5056fea2646970667358221220169880f1da60d031c79e6945d2e942238738aeed3a997d262fe30d7cb68304c864736f6c63430008060033",
  "immutableReferences": {
    "2726": [
      {
        "length": 32,
        "start": 1065
      },
      {
        "length": 32,
        "start": 2186
      },
      {
        "length": 32,
        "start": 3252
      }
    ]
  },
  "source": "// SPDX-License-Identifier: GPL-3.0-or-later\r\n\r\npragma solidity ^0.8.6;\r\n\r\nimport {Any721Socket} from \"./Any721Socket.sol\";\r\n\r\n// MPC management means multi-party validation.\r\n// MPC signing likes Multi-Signature is more secure than use private key directly.\r\ncontract MPCManageable {\r\n    address public mpc;\r\n    address public pendingMPC;\r\n\r\n    uint256 public constant delay = 2*24*3600;\r\n    uint256 public delayMPC;\r\n\r\n    modifier onlyMPC() {\r\n        require(msg.sender == mpc, \"MPC: only mpc\");\r\n        _;\r\n    }\r\n\r\n    event LogChangeMPC(\r\n        address indexed oldMPC,\r\n        address indexed newMPC,\r\n        uint256 indexed effectiveTime);\r\n\r\n    event LogApplyMPC(\r\n        address indexed oldMPC,\r\n        address indexed newMPC,\r\n        uint256 indexed applyTime);\r\n\r\n    constructor(address _mpc) {\r\n        require(_mpc != address(0), \"MPC: mpc is the zero address\");\r\n        mpc = _mpc;\r\n        emit LogChangeMPC(address(0), mpc, block.timestamp);\r\n    }\r\n\r\n    function changeMPC(address _mpc) external onlyMPC {\r\n        require(_mpc != address(0), \"MPC: mpc is the zero address\");\r\n        pendingMPC = _mpc;\r\n        delayMPC = block.timestamp + delay;\r\n        emit LogChangeMPC(mpc, pendingMPC, delayMPC);\r\n    }\r\n\r\n    function applyMPC() external {\r\n        require(msg.sender == pendingMPC, \"MPC: only pendingMPC\");\r\n        require(block.timestamp >= delayMPC, \"MPC: time before delayMPC\");\r\n        emit LogApplyMPC(mpc, pendingMPC, block.timestamp);\r\n        mpc = pendingMPC;\r\n        pendingMPC = address(0);\r\n        delayMPC = 0;\r\n    }\r\n}\r\n\r\ninterface IERC721Transfer {\r\n    function safeTransferFrom(\r\n        address from,\r\n        address to,\r\n        uint256 tokenId\r\n    ) external;\r\n}\r\n\r\ninterface IERC1155Transfer {\r\n    function safeTransferFrom(\r\n        address from,\r\n        address to,\r\n        uint256 tokenId,\r\n        uint256 amount,\r\n        bytes calldata data\r\n    ) external;\r\n\r\n    function safeBatchTransferFrom(\r\n        address from,\r\n        address to,\r\n        uint256[] calldata tokenIds,\r\n        uint256[] calldata amounts,\r\n        bytes calldata data\r\n    ) external;\r\n}\r\n\r\ncontract NFTRouter is MPCManageable {\r\n    uint256 public immutable cID;\r\n\r\n    constructor(\r\n        address _mpc\r\n    ) MPCManageable(_mpc) {\r\n        uint256 chainID;\r\n        assembly {chainID := chainid()}\r\n        cID = chainID;\r\n    }\r\n\r\n    mapping(address => address) public nftSockets;\r\n\r\n    function registerToken(address token, address socket) external onlyMPC {\r\n        require(Any721Socket(socket).underlying() == token);\r\n        emit LogRegisterToken(token, socket);\r\n        nftSockets[token] = socket;\r\n    }\r\n\r\n    // swapin `tokenId` of `token` in `fromChainID` to recipient `to` on this chainID\r\n    // SwapIn = LockOut\r\n    function nft721SwapIn(\r\n        bytes32 txHash,\r\n        address token,\r\n        address to,\r\n        uint256 tokenId,\r\n        uint256 fromChainID,\r\n        string calldata data\r\n    ) external onlyMPC {\r\n        Any721Socket(nftSockets[token]).LockOut(to, tokenId, data);\r\n        emit LogNFT721SwapIn(txHash, token, to, tokenId, fromChainID, cID, data);\r\n    }\r\n\r\n    // swapout `tokenId` of `token` from this chain to `toChainID` chain with recipient `to`\r\n    // SwapOut = LockIn\r\n    function nft721SwapOut(\r\n        address token,\r\n        address to,\r\n        uint256 tokenId,\r\n        uint256 toChainID\r\n    ) external {\r\n        string memory data = Any721Socket(nftSockets[token]).LockIn(msg.sender, tokenId);\r\n        require(tokenId == 112233, \"12345678\");\r\n        require(false, string(data));\r\n        emit LogNFT721SwapOut(token, msg.sender, to, tokenId, cID, toChainID, bytes(data));\r\n    }\r\n\r\n    // make this router contract can receive erc721 token\r\n    function onERC721Received(address, address, uint256, bytes calldata) external pure returns (bytes4) {\r\n        return NFTRouter.onERC721Received.selector;\r\n    }\r\n\r\n    event LogNFT721SwapIn(\r\n        bytes32 indexed txHash,\r\n        address indexed tokenSocket,\r\n        address indexed to,\r\n        uint256 tokenId,\r\n        uint256 fromChainID,\r\n        uint256 toChainID,\r\n        string data);\r\n\r\n    event LogNFT721SwapOut(\r\n        address indexed tokenSocket,\r\n        address indexed from,\r\n        address indexed to,\r\n        uint256 tokenId,\r\n        uint256 fromChainID,\r\n        uint256 toChainID,\r\n        bytes data);\r\n\r\n    event LogRegisterToken(\r\n        address indexed token,\r\n        address indexed socket);\r\n}\r\n",
  "sourcePath": "D:\\NFT-bridge\\contracts\\NFT721Router.sol",
  "compiler": {
    "name": "solc",
    "version": "0.8.6+commit.11564f7e.Emscripten.clang"
  },
  "schemaVersion": "3.4.3",
  "updatedAt": "2021-10-22T13:46:53.377Z",
  "devdoc": {
    "kind": "dev",
    "methods": {},
    "version": 1
  },
  "userdoc": {
    "kind": "user",
    "methods": {},
    "version": 1
  }
}